{
  "contractName": "ChannelContract",
  "abi": [
    {
      "constant": true,
      "inputs": [],
      "name": "channelSender",
      "outputs": [
        {
          "name": "",
          "type": "address"
        }
      ],
      "payable": false,
      "stateMutability": "view",
      "type": "function",
      "signature": "0x075aa0c4"
    },
    {
      "constant": true,
      "inputs": [],
      "name": "startDate",
      "outputs": [
        {
          "name": "",
          "type": "uint256"
        }
      ],
      "payable": false,
      "stateMutability": "view",
      "type": "function",
      "signature": "0x0b97bc86"
    },
    {
      "constant": true,
      "inputs": [],
      "name": "channelReceiver",
      "outputs": [
        {
          "name": "",
          "type": "address"
        }
      ],
      "payable": false,
      "stateMutability": "view",
      "type": "function",
      "signature": "0x14978ff9"
    },
    {
      "constant": true,
      "inputs": [],
      "name": "timeout",
      "outputs": [
        {
          "name": "",
          "type": "uint256"
        }
      ],
      "payable": false,
      "stateMutability": "view",
      "type": "function",
      "signature": "0x70dea79a"
    },
    {
      "constant": true,
      "inputs": [],
      "name": "servicePrice",
      "outputs": [
        {
          "name": "",
          "type": "uint256"
        }
      ],
      "payable": false,
      "stateMutability": "view",
      "type": "function",
      "signature": "0xec67d2d3"
    },
    {
      "payable": true,
      "stateMutability": "payable",
      "type": "fallback"
    },
    {
      "constant": false,
      "inputs": [
        {
          "name": "_to",
          "type": "address"
        },
        {
          "name": "_timeout",
          "type": "uint256"
        }
      ],
      "name": "createChannel",
      "outputs": [],
      "payable": true,
      "stateMutability": "payable",
      "type": "function",
      "signature": "0xbb510a77"
    },
    {
      "constant": false,
      "inputs": [
        {
          "name": "msgHash",
          "type": "bytes32"
        },
        {
          "name": "v",
          "type": "uint8"
        },
        {
          "name": "r",
          "type": "bytes32"
        },
        {
          "name": "s",
          "type": "bytes32"
        },
        {
          "name": "value",
          "type": "uint256"
        }
      ],
      "name": "closeChannel",
      "outputs": [],
      "payable": false,
      "stateMutability": "nonpayable",
      "type": "function",
      "signature": "0xa5e84c26"
    },
    {
      "constant": false,
      "inputs": [],
      "name": "channelTimeout",
      "outputs": [],
      "payable": false,
      "stateMutability": "nonpayable",
      "type": "function",
      "signature": "0x2ef2d55e"
    },
    {
      "constant": true,
      "inputs": [
        {
          "name": "msgHash",
          "type": "bytes32"
        },
        {
          "name": "sig",
          "type": "bytes32"
        }
      ],
      "name": "recoverSigner",
      "outputs": [
        {
          "name": "",
          "type": "address"
        }
      ],
      "payable": false,
      "stateMutability": "pure",
      "type": "function",
      "signature": "0x79ba61c9"
    }
  ],
  "bytecode": "0x6080604052670de0b6b3a764000060045534801561001c57600080fd5b5061086e8061002c6000396000f3fe608060405260043610610099576000357c0100000000000000000000000000000000000000000000000000000000900463ffffffff168063075aa0c41461009b5780630b97bc86146100f257806314978ff91461011d5780632ef2d55e1461017457806370dea79a1461018b57806379ba61c9146101b6578063a5e84c261461023b578063bb510a77146102a1578063ec67d2d3146102ef575b005b3480156100a757600080fd5b506100b061031a565b604051808273ffffffffffffffffffffffffffffffffffffffff1673ffffffffffffffffffffffffffffffffffffffff16815260200191505060405180910390f35b3480156100fe57600080fd5b5061010761033f565b6040518082815260200191505060405180910390f35b34801561012957600080fd5b50610132610345565b604051808273ffffffffffffffffffffffffffffffffffffffff1673ffffffffffffffffffffffffffffffffffffffff16815260200191505060405180910390f35b34801561018057600080fd5b5061018961036b565b005b34801561019757600080fd5b506101a06103ba565b6040518082815260200191505060405180910390f35b3480156101c257600080fd5b506101f9600480360360408110156101d957600080fd5b8101908080359060200190929190803590602001909291905050506103c0565b604051808273ffffffffffffffffffffffffffffffffffffffff1673ffffffffffffffffffffffffffffffffffffffff16815260200191505060405180910390f35b34801561024757600080fd5b5061029f600480360360a081101561025e57600080fd5b8101908080359060200190929190803560ff16906020019092919080359060200190929190803590602001909291908035906020019092919050505061044d565b005b6102ed600480360360408110156102b757600080fd5b81019080803573ffffffffffffffffffffffffffffffffffffffff16906020019092919080359060200190929190505050610750565b005b3480156102fb57600080fd5b506103046107f4565b6040518082815260200191505060405180910390f35b6000809054906101000a900473ffffffffffffffffffffffffffffffffffffffff1681565b60025481565b600160009054906101000a900473ffffffffffffffffffffffffffffffffffffffff1681565b42600354600254011115151561038057600080fd5b6000809054906101000a900473ffffffffffffffffffffffffffffffffffffffff1673ffffffffffffffffffffffffffffffffffffffff16ff5b60035481565b6000806000806103cf856107fa565b80935081945082955050505060018684848460405160008152602001604052604051808581526020018460ff1660ff1681526020018381526020018281526020019450505050506020604051602081039080840390855afa158015610438573d6000803e3d6000fd5b50505060206040510351935050505092915050565b600060018686868660405160008152602001604052604051808581526020018460ff1660ff1681526020018381526020018281526020019450505050506020604051602081039080840390855afa1580156104ac573d6000803e3d6000fd5b5050506020604051035190506000809054906101000a900473ffffffffffffffffffffffffffffffffffffffff1673ffffffffffffffffffffffffffffffffffffffff168173ffffffffffffffffffffffffffffffffffffffff1614806105605750600160009054906101000a900473ffffffffffffffffffffffffffffffffffffffff1673ffffffffffffffffffffffffffffffffffffffff168173ffffffffffffffffffffffffffffffffffffffff16145b151561056b57600080fd5b60003083604051602001808373ffffffffffffffffffffffffffffffffffffffff1673ffffffffffffffffffffffffffffffffffffffff166c010000000000000000000000000281526014018281526020019250505060405160208183030381529060405280519060200120905086811415156105e757600080fd5b600073ffffffffffffffffffffffffffffffffffffffff166005600083815260200190815260200160002060009054906101000a900473ffffffffffffffffffffffffffffffffffffffff1673ffffffffffffffffffffffffffffffffffffffff1614156106a657816005600083815260200190815260200160002060006101000a81548173ffffffffffffffffffffffffffffffffffffffff021916908373ffffffffffffffffffffffffffffffffffffffff160217905550610747565b6000600160009054906101000a900473ffffffffffffffffffffffffffffffffffffffff1673ffffffffffffffffffffffffffffffffffffffff166108fc859081150290604051600060405180830381858888f19350505050905080151561070d57600080fd5b6000809054906101000a900473ffffffffffffffffffffffffffffffffffffffff1673ffffffffffffffffffffffffffffffffffffffff16ff5b50505050505050565b600454341015151561076157600080fd5b81600160006101000a81548173ffffffffffffffffffffffffffffffffffffffff021916908373ffffffffffffffffffffffffffffffffffffffff160217905550336000806101000a81548173ffffffffffffffffffffffffffffffffffffffff021916908373ffffffffffffffffffffffffffffffffffffffff16021790555042600281905550806003819055505050565b60045481565b60008060006041602060ff1614151561081257600080fd5b60008060006020870151925060408701519150606087015160001a9050808383955095509550505050919390925056fea165627a7a723058200548b9b47f2d8af612fe524352864ceda87276da487bf2e6a50fa1fc63ae1efc0029",
  "source": "pragma solidity ^0.5.0;\n\ncontract ChannelContract {\n\n    address payable public channelSender;   // make private\n    address payable public channelReceiver; // make private\n    uint public startDate;\n    uint public timeout;\n    uint public servicePrice = 1 ether;\n    mapping (bytes32 => address) signatures;\n\n\n    /* \n        The fallback function is necessary in case a user wants to interact with the contract\n        from a wallet. In this case the function takes no arguments, but accepts funds, i.e. the user\n        who knows the address of its channel with the vendor wants to top-up directly from his wallet.\n        In this case, we assume the channel receiver has been set previously from the web interface.\n        This is useful for online services, such as a mobile carrier top-up.    \n    */\n    function () external payable { }\n\n    function createChannel(address payable _to, uint _timeout) public payable {\n        require(msg.value >= servicePrice);\n\n        channelReceiver = _to;\n        channelSender = msg.sender;\n        startDate = now;\n        timeout = _timeout;\n    }\n\n\n    function closeChannel(bytes32 msgHash, uint8 v, bytes32 r, bytes32 s, uint value) public {\n\n        address signer = ecrecover(msgHash, v, r, s);\n        require(signer == channelSender || signer == channelReceiver);\n\n        // signature valid\n\n        // hash of contract address and amount claimed by receiver\n        bytes32 proof = keccak256(abi.encodePacked(this, value)); // TODO: change to sha3 if it does not work\n    \n        // both sender and receiver must have sign the redeemable value (by sender)\n        require(proof == msgHash);\n\n        if(signatures[proof] == 0x0000000000000000000000000000000000000000) {\n            signatures[proof] = signer;\n        } else {\n            bool success = channelReceiver.send(value);\n            if(!success) {\n                revert();\n            }\n            selfdestruct(channelSender);\n        }\n    }\n\n    function channelTimeout() public {\n        require(startDate + timeout <= now);\n        // self-destruct if expired\n\n        selfdestruct(channelSender);\n    }\n\n    // Message signature verification\n    function splitSignature(bytes32 sig) internal pure returns (uint8, bytes32, bytes32) {\n        require(sig.length == 65);\n\n        bytes32 r;\n        bytes32 s;\n        uint8 v;\n\n        assembly {\n            // first 32 bytes, after the length prefix\n            r := mload(add(sig, 32))\n            // second 32 bytes\n            s := mload(add(sig, 64))\n            // final byte (first byte of the next 32 bytes)\n            v := byte(0, mload(add(sig, 96)))\n        }\n\n        return (v, r, s);\n    }\n    \n    // usage https://programtheblockchain.com/posts/2018/02/17/signing-and-verifying-messages-in-ethereum/\n    function recoverSigner(bytes32 msgHash, bytes32 sig) public pure returns (address) {\n        uint8 v;\n        bytes32 r;\n        bytes32 s;\n\n        (v, r, s) = splitSignature(sig);\n\n        return ecrecover(msgHash, v, r, s);\n    }\n}\n",
  "sourcePath": "/home/andrei-octavian/micropayment-channel/contracts/ChannelContract.sol",
  "compiler": {
    "name": "solc",
    "version": "0.5.0+commit.1d4f565a.Emscripten.clang"
  },
  "schemaVersion": "3.0.1",
  "updatedAt": "2019-02-11T20:57:16.896Z",
  "devdoc": {
    "methods": {}
  },
  "userdoc": {
    "methods": {}
  }
}