{
  "contractName": "ChannelContract",
  "abi": [
    {
      "constant": true,
      "inputs": [],
      "name": "channelSender",
      "outputs": [
        {
          "name": "",
          "type": "address"
        }
      ],
      "payable": false,
      "stateMutability": "view",
      "type": "function",
      "signature": "0x075aa0c4"
    },
    {
      "constant": true,
      "inputs": [],
      "name": "startDate",
      "outputs": [
        {
          "name": "",
          "type": "uint256"
        }
      ],
      "payable": false,
      "stateMutability": "view",
      "type": "function",
      "signature": "0x0b97bc86"
    },
    {
      "constant": true,
      "inputs": [],
      "name": "channelReceiver",
      "outputs": [
        {
          "name": "",
          "type": "address"
        }
      ],
      "payable": false,
      "stateMutability": "view",
      "type": "function",
      "signature": "0x14978ff9"
    },
    {
      "constant": true,
      "inputs": [],
      "name": "timeout",
      "outputs": [
        {
          "name": "",
          "type": "uint256"
        }
      ],
      "payable": false,
      "stateMutability": "view",
      "type": "function",
      "signature": "0x70dea79a"
    },
    {
      "constant": true,
      "inputs": [],
      "name": "servicePrice",
      "outputs": [
        {
          "name": "",
          "type": "uint256"
        }
      ],
      "payable": false,
      "stateMutability": "view",
      "type": "function",
      "signature": "0xec67d2d3"
    },
    {
      "payable": true,
      "stateMutability": "payable",
      "type": "fallback"
    },
    {
      "anonymous": false,
      "inputs": [
        {
          "indexed": false,
          "name": "first",
          "type": "string"
        }
      ],
      "name": "FirstClose",
      "type": "event",
      "signature": "0x465073f649a30a4d27555540dcdc77e1c31479d039a790f167b1c2340dd9e046"
    },
    {
      "anonymous": false,
      "inputs": [
        {
          "indexed": false,
          "name": "second",
          "type": "string"
        }
      ],
      "name": "SecondClose",
      "type": "event",
      "signature": "0xb7be8f1f46fee7322a4ddfd41c73b9af80bc26ab3ecfce48439e528dcffc3e0d"
    },
    {
      "anonymous": false,
      "inputs": [
        {
          "indexed": false,
          "name": "aftersend",
          "type": "string"
        }
      ],
      "name": "AfterSend",
      "type": "event",
      "signature": "0x0ea93c30ebb787fbb07251b86365da6b272c369e6b3787b99ba1462fc73c97c7"
    },
    {
      "anonymous": false,
      "inputs": [
        {
          "indexed": false,
          "name": "aftersend",
          "type": "string"
        }
      ],
      "name": "HereOne",
      "type": "event",
      "signature": "0x8e681e36683dc5d4c7696fb11fca9a328c553408a0b9f7f9e54165f143364ad5"
    },
    {
      "anonymous": false,
      "inputs": [
        {
          "indexed": false,
          "name": "aftersend",
          "type": "string"
        }
      ],
      "name": "HereTwo",
      "type": "event",
      "signature": "0x2c8377b717587462a7d4b995275c3928d46f9180df9a83318008fca7d1372693"
    },
    {
      "anonymous": false,
      "inputs": [
        {
          "indexed": false,
          "name": "aftersend",
          "type": "string"
        }
      ],
      "name": "HereThree",
      "type": "event",
      "signature": "0x86b39ec7aa8ce718a21a0a9b5858ea3ed7afed657b674ad23c5d4dd02741b627"
    },
    {
      "anonymous": false,
      "inputs": [
        {
          "indexed": false,
          "name": "checkBalance",
          "type": "string"
        },
        {
          "indexed": false,
          "name": "balance",
          "type": "uint256"
        }
      ],
      "name": "CheckBalance",
      "type": "event",
      "signature": "0x19630f629b52cf6af917e683c3d7e2bd64aec7a2e904fecea2095409156523ba"
    },
    {
      "anonymous": false,
      "inputs": [
        {
          "indexed": false,
          "name": "result",
          "type": "bool"
        }
      ],
      "name": "Status",
      "type": "event",
      "signature": "0xeea9a7378612b22747fbdec0c5bdf9561d7b49252b1018ec692e11256813896e"
    },
    {
      "anonymous": false,
      "inputs": [
        {
          "indexed": false,
          "name": "printedAddress",
          "type": "address"
        }
      ],
      "name": "PrintAddress",
      "type": "event",
      "signature": "0xa16adbb4218174483d6638aa2a7cfae613fb09f920505beb947e63144629a875"
    },
    {
      "anonymous": false,
      "inputs": [
        {
          "indexed": false,
          "name": "message",
          "type": "string"
        }
      ],
      "name": "ChannelDestructed",
      "type": "event",
      "signature": "0x11e1e5aed5853458321f327275dc481c612700c07d86f59dcaa0d7ab9a29abb7"
    },
    {
      "constant": false,
      "inputs": [
        {
          "name": "_to",
          "type": "address"
        },
        {
          "name": "_timeout",
          "type": "uint256"
        }
      ],
      "name": "createChannel",
      "outputs": [],
      "payable": true,
      "stateMutability": "payable",
      "type": "function",
      "signature": "0xbb510a77"
    },
    {
      "constant": false,
      "inputs": [
        {
          "name": "msgHash",
          "type": "bytes32"
        },
        {
          "name": "v",
          "type": "uint8"
        },
        {
          "name": "r",
          "type": "bytes32"
        },
        {
          "name": "s",
          "type": "bytes32"
        },
        {
          "name": "value",
          "type": "uint256"
        }
      ],
      "name": "closeChannel",
      "outputs": [],
      "payable": false,
      "stateMutability": "nonpayable",
      "type": "function",
      "signature": "0xa5e84c26"
    },
    {
      "constant": false,
      "inputs": [],
      "name": "channelTimeout",
      "outputs": [],
      "payable": false,
      "stateMutability": "nonpayable",
      "type": "function",
      "signature": "0x2ef2d55e"
    }
  ],
  "bytecode": "0x6080604052670de0b6b3a764000060045534801561001c57600080fd5b50610abf8061002c6000396000f3fe60806040526004361061008e576000357c0100000000000000000000000000000000000000000000000000000000900463ffffffff168063075aa0c4146100905780630b97bc86146100e757806314978ff9146101125780632ef2d55e1461016957806370dea79a14610180578063a5e84c26146101ab578063bb510a7714610211578063ec67d2d31461025f575b005b34801561009c57600080fd5b506100a561028a565b604051808273ffffffffffffffffffffffffffffffffffffffff1673ffffffffffffffffffffffffffffffffffffffff16815260200191505060405180910390f35b3480156100f357600080fd5b506100fc6102af565b6040518082815260200191505060405180910390f35b34801561011e57600080fd5b506101276102b5565b604051808273ffffffffffffffffffffffffffffffffffffffff1673ffffffffffffffffffffffffffffffffffffffff16815260200191505060405180910390f35b34801561017557600080fd5b5061017e6102db565b005b34801561018c57600080fd5b50610195610392565b6040518082815260200191505060405180910390f35b3480156101b757600080fd5b5061020f600480360360a08110156101ce57600080fd5b8101908080359060200190929190803560ff169060200190929190803590602001909291908035906020019092919080359060200190929190505050610398565b005b61025d6004803603604081101561022757600080fd5b81019080803573ffffffffffffffffffffffffffffffffffffffff169060200190929190803590602001909291905050506109e9565b005b34801561026b57600080fd5b50610274610a8d565b6040518082815260200191505060405180910390f35b6000809054906101000a900473ffffffffffffffffffffffffffffffffffffffff1681565b60025481565b600160009054906101000a900473ffffffffffffffffffffffffffffffffffffffff1681565b4260035460025401111515156102f057600080fd5b7f11e1e5aed5853458321f327275dc481c612700c07d86f59dcaa0d7ab9a29abb760405180806020018281038252601e8152602001807f4368616e6e656c20657870697265642e2044657374726f79696e672e2e2e000081525060200191505060405180910390a16000809054906101000a900473ffffffffffffffffffffffffffffffffffffffff1673ffffffffffffffffffffffffffffffffffffffff16ff5b60035481565b600060018686868660405160008152602001604052604051808581526020018460ff1660ff1681526020018381526020018281526020019450505050506020604051602081039080840390855afa1580156103f7573d6000803e3d6000fd5b5050506020604051035190506000809054906101000a900473ffffffffffffffffffffffffffffffffffffffff1673ffffffffffffffffffffffffffffffffffffffff168173ffffffffffffffffffffffffffffffffffffffff1614806104ab5750600160009054906101000a900473ffffffffffffffffffffffffffffffffffffffff1673ffffffffffffffffffffffffffffffffffffffff168173ffffffffffffffffffffffffffffffffffffffff16145b15156104b657600080fd5b60003083604051602001808373ffffffffffffffffffffffffffffffffffffffff1673ffffffffffffffffffffffffffffffffffffffff166c0100000000000000000000000002815260140182815260200192505050604051602081830303815290604052805190602001209050868114151561053257600080fd5b600073ffffffffffffffffffffffffffffffffffffffff166005600083815260200190815260200160002060009054906101000a900473ffffffffffffffffffffffffffffffffffffffff1673ffffffffffffffffffffffffffffffffffffffff16141561065957816005600083815260200190815260200160002060006101000a81548173ffffffffffffffffffffffffffffffffffffffff021916908373ffffffffffffffffffffffffffffffffffffffff1602179055507f465073f649a30a4d27555540dcdc77e1c31479d039a790f167b1c2340dd9e0466040518080602001828103825260108152602001807f7465737420666972737420636c6f73650000000000000000000000000000000081525060200191505060405180910390a16109e0565b7f19630f629b52cf6af917e683c3d7e2bd64aec7a2e904fecea2095409156523ba3073ffffffffffffffffffffffffffffffffffffffff16316040518080602001838152602001828103825260198152602001807f436865636b2062616c616e6365206265666f72652073656e64000000000000008152506020019250505060405180910390a17f19630f629b52cf6af917e683c3d7e2bd64aec7a2e904fecea2095409156523ba670de0b6b3a764000084026040518080602001838152602001828103825260188152602001807f436865636b20616d6f756e74206265666f72652073656e6400000000000000008152506020019250505060405180910390a17fa16adbb4218174483d6638aa2a7cfae613fb09f920505beb947e63144629a875600160009054906101000a900473ffffffffffffffffffffffffffffffffffffffff16604051808273ffffffffffffffffffffffffffffffffffffffff1673ffffffffffffffffffffffffffffffffffffffff16815260200191505060405180910390a17fa16adbb4218174483d6638aa2a7cfae613fb09f920505beb947e63144629a8756000809054906101000a900473ffffffffffffffffffffffffffffffffffffffff16604051808273ffffffffffffffffffffffffffffffffffffffff1673ffffffffffffffffffffffffffffffffffffffff16815260200191505060405180910390a1600160009054906101000a900473ffffffffffffffffffffffffffffffffffffffff1673ffffffffffffffffffffffffffffffffffffffff166108fc670de0b6b3a764000085029081150290604051600060405180830381858888f193505050501580156108d5573d6000803e3d6000fd5b507fb7be8f1f46fee7322a4ddfd41c73b9af80bc26ab3ecfce48439e528dcffc3e0d6040518080602001828103825260118152602001807f74657374207365636f6e6420636c6f736500000000000000000000000000000081525060200191505060405180910390a17f0ea93c30ebb787fbb07251b86365da6b272c369e6b3787b99ba1462fc73c97c76040518080602001828103825260198152602001807f61667465722073656e642c2073656c662064657374727563740000000000000081525060200191505060405180910390a16000809054906101000a900473ffffffffffffffffffffffffffffffffffffffff1673ffffffffffffffffffffffffffffffffffffffff16ff5b50505050505050565b60045434101515156109fa57600080fd5b81600160006101000a81548173ffffffffffffffffffffffffffffffffffffffff021916908373ffffffffffffffffffffffffffffffffffffffff160217905550336000806101000a81548173ffffffffffffffffffffffffffffffffffffffff021916908373ffffffffffffffffffffffffffffffffffffffff16021790555042600281905550806003819055505050565b6004548156fea165627a7a72305820461c40469a91fe2c731f32e90c6b949968dbd63b8c52595a7f7a3c932f538a9b0029",
  "source": "pragma solidity ^0.5.0;\n\ncontract ChannelContract {\n\n    address payable public channelSender;   // make private\n    address payable public channelReceiver; // make private\n    uint public startDate;\n    uint public timeout;\n    uint public servicePrice = 1 ether;\n    mapping (bytes32 => address) signatures;\n\n\n    /* \n        The fallback function is necessary in case a user wants to interact with the contract\n        from a wallet. In this case the function takes no arguments, but accepts funds, i.e. the user\n        who knows the address of its channel with the vendor wants to top-up directly from his wallet.\n        In this case, we assume the channel receiver has been set previously from the web interface.\n        This is useful for online services, such as a mobile carrier top-up.    \n    */\n    function () external payable { }\n\n    function createChannel(address payable _to, uint _timeout) public payable {\n        require(msg.value >= servicePrice);\n\n        channelReceiver = _to;\n        channelSender = msg.sender;\n        startDate = now;\n        timeout = _timeout;\n    }\n\n    event FirstClose(string first);\n    event SecondClose(string second);\n    event AfterSend(string aftersend);\n    event HereOne(string aftersend);\n    event HereTwo(string aftersend);\n    event HereThree(string aftersend);\n    event CheckBalance(string checkBalance, uint balance);\n    event Status(bool result);\n    event PrintAddress(address printedAddress);\n\n    function closeChannel(bytes32 msgHash, uint8 v, bytes32 r, bytes32 s, uint256 value) public {\n\n        address signer = ecrecover(msgHash, v, r, s);\n        require(signer == channelSender || signer == channelReceiver);\n\n        // signature valid\n\n        // hash of contract address and amount claimed by receiver\n        bytes32 proof = keccak256(abi.encodePacked(this, value)); // TODO: change to sha3 if it does not work\n    \n        // both sender and receiver must have sign the redeemable value (by sender)\n        require(proof == msgHash);\n\n        if(signatures[proof] == address(0)) {\n            signatures[proof] = signer;\n            emit FirstClose(\"test first close\");\n        } else {\n            emit CheckBalance(\"Check balance before send\", address(this).balance);\n            emit CheckBalance(\"Check amount before send\", value * 1 ether);\n            emit PrintAddress(channelReceiver);\n            emit PrintAddress(channelSender);\n            channelReceiver.transfer(value * 1 ether); /// value * oneWei);\n            emit SecondClose(\"test second close\");\n            emit AfterSend(\"after send, self destruct\");\n            selfdestruct(channelSender);\n        }\n    }\n\n    event ChannelDestructed(string message);\n\n    function channelTimeout() public {\n        require(startDate + timeout <= now);\n        // self-destruct if expired\n\n        emit ChannelDestructed(\"Channel expired. Destroying...\");\n\n        selfdestruct(channelSender);\n    }\n}\n",
  "sourcePath": "/home/andrei-octavian/micropayment-channel/contracts/ChannelContract.sol",
  "compiler": {
    "name": "solc",
    "version": "0.5.0+commit.1d4f565a.Emscripten.clang"
  },
  "schemaVersion": "3.0.1",
  "updatedAt": "2019-02-12T17:49:15.300Z",
  "devdoc": {
    "methods": {}
  },
  "userdoc": {
    "methods": {}
  }
}