{
  "contractName": "ChannelContract",
  "abi": [
    {
      "constant": true,
      "inputs": [],
      "name": "channelSender",
      "outputs": [
        {
          "name": "",
          "type": "address"
        }
      ],
      "payable": false,
      "stateMutability": "view",
      "type": "function",
      "signature": "0x075aa0c4"
    },
    {
      "constant": true,
      "inputs": [],
      "name": "startDate",
      "outputs": [
        {
          "name": "",
          "type": "uint256"
        }
      ],
      "payable": false,
      "stateMutability": "view",
      "type": "function",
      "signature": "0x0b97bc86"
    },
    {
      "constant": true,
      "inputs": [],
      "name": "channelReceiver",
      "outputs": [
        {
          "name": "",
          "type": "address"
        }
      ],
      "payable": false,
      "stateMutability": "view",
      "type": "function",
      "signature": "0x14978ff9"
    },
    {
      "constant": true,
      "inputs": [],
      "name": "timeout",
      "outputs": [
        {
          "name": "",
          "type": "uint256"
        }
      ],
      "payable": false,
      "stateMutability": "view",
      "type": "function",
      "signature": "0x70dea79a"
    },
    {
      "constant": true,
      "inputs": [],
      "name": "servicePrice",
      "outputs": [
        {
          "name": "",
          "type": "uint256"
        }
      ],
      "payable": false,
      "stateMutability": "view",
      "type": "function",
      "signature": "0xec67d2d3"
    },
    {
      "constant": false,
      "inputs": [
        {
          "name": "_to",
          "type": "address"
        },
        {
          "name": "_timeout",
          "type": "uint256"
        }
      ],
      "name": "channel",
      "outputs": [],
      "payable": true,
      "stateMutability": "payable",
      "type": "function",
      "signature": "0xe32db85d"
    },
    {
      "constant": false,
      "inputs": [
        {
          "name": "msgHash",
          "type": "bytes32"
        },
        {
          "name": "sig",
          "type": "bytes"
        },
        {
          "name": "value",
          "type": "uint256"
        }
      ],
      "name": "closeChannel",
      "outputs": [],
      "payable": false,
      "stateMutability": "nonpayable",
      "type": "function",
      "signature": "0x5b73a86d"
    },
    {
      "constant": false,
      "inputs": [],
      "name": "channelTimeout",
      "outputs": [],
      "payable": false,
      "stateMutability": "nonpayable",
      "type": "function",
      "signature": "0x2ef2d55e"
    }
  ],
  "bytecode": "0x6080604052670de0b6b3a764000060045534801561001c57600080fd5b5061085e8061002c6000396000f3fe60806040526004361061008e576000357c0100000000000000000000000000000000000000000000000000000000900463ffffffff168063075aa0c4146100935780630b97bc86146100ea57806314978ff9146101155780632ef2d55e1461016c5780635b73a86d1461018357806370dea79a1461025f578063e32db85d1461028a578063ec67d2d3146102d8575b600080fd5b34801561009f57600080fd5b506100a8610303565b604051808273ffffffffffffffffffffffffffffffffffffffff1673ffffffffffffffffffffffffffffffffffffffff16815260200191505060405180910390f35b3480156100f657600080fd5b506100ff610328565b6040518082815260200191505060405180910390f35b34801561012157600080fd5b5061012a61032e565b604051808273ffffffffffffffffffffffffffffffffffffffff1673ffffffffffffffffffffffffffffffffffffffff16815260200191505060405180910390f35b34801561017857600080fd5b50610181610354565b005b34801561018f57600080fd5b5061025d600480360360608110156101a657600080fd5b8101908080359060200190929190803590602001906401000000008111156101cd57600080fd5b8201836020820111156101df57600080fd5b8035906020019184600183028401116401000000008311171561020157600080fd5b91908080601f016020809104026020016040519081016040528093929190818152602001838380828437600081840152601f19601f820116905080830192505050505050509192919290803590602001909291905050506103a3565b005b34801561026b57600080fd5b506102746106b0565b6040518082815260200191505060405180910390f35b6102d6600480360360408110156102a057600080fd5b81019080803573ffffffffffffffffffffffffffffffffffffffff169060200190929190803590602001909291905050506106b6565b005b3480156102e457600080fd5b506102ed61075a565b6040518082815260200191505060405180910390f35b6000809054906101000a900473ffffffffffffffffffffffffffffffffffffffff1681565b60025481565b600160009054906101000a900473ffffffffffffffffffffffffffffffffffffffff1681565b42600354600254011115151561036957600080fd5b6000809054906101000a900473ffffffffffffffffffffffffffffffffffffffff1673ffffffffffffffffffffffffffffffffffffffff16ff5b60006103af8484610760565b90506000809054906101000a900473ffffffffffffffffffffffffffffffffffffffff1673ffffffffffffffffffffffffffffffffffffffff168173ffffffffffffffffffffffffffffffffffffffff1614806104595750600160009054906101000a900473ffffffffffffffffffffffffffffffffffffffff1673ffffffffffffffffffffffffffffffffffffffff168173ffffffffffffffffffffffffffffffffffffffff16145b151561046457600080fd5b60003083604051602001808373ffffffffffffffffffffffffffffffffffffffff1673ffffffffffffffffffffffffffffffffffffffff166c010000000000000000000000000281526014018281526020019250505060405160208183030381529060405280519060200120905084811415156104e057600080fd5b600073ffffffffffffffffffffffffffffffffffffffff166005600083815260200190815260200160002060009054906101000a900473ffffffffffffffffffffffffffffffffffffffff1673ffffffffffffffffffffffffffffffffffffffff16141561059f57816005600083815260200190815260200160002060006101000a81548173ffffffffffffffffffffffffffffffffffffffff021916908373ffffffffffffffffffffffffffffffffffffffff1602179055506106a9565b8173ffffffffffffffffffffffffffffffffffffffff166005600083815260200190815260200160002060009054906101000a900473ffffffffffffffffffffffffffffffffffffffff1673ffffffffffffffffffffffffffffffffffffffff161415156106a8576000600160009054906101000a900473ffffffffffffffffffffffffffffffffffffffff1673ffffffffffffffffffffffffffffffffffffffff166108fc859081150290604051600060405180830381858888f19350505050905080151561066e57600080fd5b6000809054906101000a900473ffffffffffffffffffffffffffffffffffffffff1673ffffffffffffffffffffffffffffffffffffffff16ff5b5b5050505050565b60035481565b60045434101515156106c757600080fd5b81600160006101000a81548173ffffffffffffffffffffffffffffffffffffffff021916908373ffffffffffffffffffffffffffffffffffffffff160217905550336000806101000a81548173ffffffffffffffffffffffffffffffffffffffff021916908373ffffffffffffffffffffffffffffffffffffffff16021790555042600281905550806003819055505050565b60045481565b60008060008061076f856107ed565b80935081945082955050505060018684848460405160008152602001604052604051808581526020018460ff1660ff1681526020018381526020018281526020019450505050506020604051602081039080840390855afa1580156107d8573d6000803e3d6000fd5b50505060206040510351935050505092915050565b60008060006041845114151561080257600080fd5b60008060006020870151925060408701519150606087015160001a9050808383955095509550505050919390925056fea165627a7a723058203baf5bdc0d92be5523aaad4aafe3fd6895256489ef0e74f61645e8dc44fd5c8c0029",
  "source": "pragma solidity ^0.5.0;\n\ncontract ChannelContract {\n\n    address payable public channelSender;   // make private\n    address payable public channelReceiver; // make private\n    uint public startDate;\n    uint public timeout;\n    uint public servicePrice = 1 ether;\n    mapping (bytes32 => address) signatures;\n\n\n    function channel(address payable _to, uint _timeout) public payable {\n        require(msg.value >= servicePrice);\n\n        channelReceiver = _to;\n        channelSender = msg.sender;\n        startDate = now;\n        timeout = _timeout;\n    }\n\n\n    function closeChannel(bytes32 msgHash, bytes memory sig, uint value) public {\n\n        address signer = recoverSigner(msgHash, sig);\n        require(signer == channelSender || signer == channelReceiver);\n\n        // signature valid\n\n        // hash of contract address and amount claimed by receiver\n        bytes32 proof = keccak256(abi.encodePacked(this, value)); // TODO: change to sha3 if it does not work\n    \n        // both sender and receiver must have sign the redeemable value (by sender)\n        require(proof == msgHash);\n\n        if(signatures[proof] == 0x0000000000000000000000000000000000000000) {\n            signatures[proof] = signer;\n        } else if(signatures[proof] != signer) {\n            bool success = channelReceiver.send(value);\n            if(!success) {\n                revert();\n            }\n            selfdestruct(channelSender);\n        }\n    }\n\n    function channelTimeout() public {\n        require(startDate + timeout <= now);\n        // self-destruct if expired\n\n        selfdestruct(channelSender);\n    }\n\n    // Message signature verification\n    function splitSignature(bytes memory sig) internal pure returns (uint8, bytes32, bytes32) {\n        require(sig.length == 65);\n\n        bytes32 r;\n        bytes32 s;\n        uint8 v;\n\n        assembly {\n            // first 32 bytes, after the length prefix\n            r := mload(add(sig, 32))\n            // second 32 bytes\n            s := mload(add(sig, 64))\n            // final byte (first byte of the next 32 bytes)\n            v := byte(0, mload(add(sig, 96)))\n        }\n\n        return (v, r, s);\n    }\n    \n    // usage https://programtheblockchain.com/posts/2018/02/17/signing-and-verifying-messages-in-ethereum/\n    function recoverSigner(bytes32 msgHash, bytes memory sig) internal pure returns (address) {\n        uint8 v;\n        bytes32 r;\n        bytes32 s;\n\n        (v, r, s) = splitSignature(sig);\n\n        return ecrecover(msgHash, v, r, s);\n    }\n    \n    function isSigned(address _addr, bytes32 msgHash, bytes memory sig) internal pure returns (bool) {\n        return recoverSigner(msgHash, sig) == _addr;\n    }\n}\n",
  "sourcePath": "/home/andrei-octavian/micropayment-channel/contracts/ChannelContract.sol",
  "compiler": {
    "name": "solc",
    "version": "0.5.0+commit.1d4f565a.Emscripten.clang"
  },
  "schemaVersion": "3.0.1",
  "updatedAt": "2019-02-09T19:27:07.375Z",
  "devdoc": {
    "methods": {}
  },
  "userdoc": {
    "methods": {}
  }
}