{
  "contractName": "ChannelContract",
  "abi": [
    {
      "payable": true,
      "stateMutability": "payable",
      "type": "fallback"
    },
    {
      "anonymous": false,
      "inputs": [
        {
          "indexed": false,
          "name": "message",
          "type": "string"
        }
      ],
      "name": "ChannelDestructed",
      "type": "event",
      "signature": "0x11e1e5aed5853458321f327275dc481c612700c07d86f59dcaa0d7ab9a29abb7"
    },
    {
      "constant": false,
      "inputs": [
        {
          "name": "_to",
          "type": "address"
        },
        {
          "name": "_timeout",
          "type": "uint256"
        }
      ],
      "name": "createChannel",
      "outputs": [],
      "payable": true,
      "stateMutability": "payable",
      "type": "function",
      "signature": "0xbb510a77"
    },
    {
      "constant": false,
      "inputs": [
        {
          "name": "msgHash",
          "type": "bytes32"
        },
        {
          "name": "v",
          "type": "uint8"
        },
        {
          "name": "r",
          "type": "bytes32"
        },
        {
          "name": "s",
          "type": "bytes32"
        },
        {
          "name": "value",
          "type": "uint256"
        }
      ],
      "name": "closeChannel",
      "outputs": [],
      "payable": false,
      "stateMutability": "nonpayable",
      "type": "function",
      "signature": "0xa5e84c26"
    },
    {
      "constant": false,
      "inputs": [],
      "name": "channelTimeout",
      "outputs": [],
      "payable": false,
      "stateMutability": "nonpayable",
      "type": "function",
      "signature": "0x2ef2d55e"
    }
  ],
  "bytecode": "0x6080604052670de0b6b3a76400006004556000600660006101000a81548160ff02191690831515021790555034801561003757600080fd5b506105f1806100476000396000f3fe608060405260043610610057576000357c0100000000000000000000000000000000000000000000000000000000900463ffffffff1680632ef2d55e14610059578063a5e84c2614610070578063bb510a77146100d6575b005b34801561006557600080fd5b5061006e610124565b005b34801561007c57600080fd5b506100d4600480360360a081101561009357600080fd5b8101908080359060200190929190803560ff1690602001909291908035906020019092919080359060200190929190803590602001909291905050506101db565b005b610122600480360360408110156100ec57600080fd5b81019080803573ffffffffffffffffffffffffffffffffffffffff169060200190929190803590602001909291905050506104ea565b005b42600354600254011115151561013957600080fd5b7f11e1e5aed5853458321f327275dc481c612700c07d86f59dcaa0d7ab9a29abb760405180806020018281038252601e8152602001807f4368616e6e656c20657870697265642e2044657374726f79696e672e2e2e000081525060200191505060405180910390a16000809054906101000a900473ffffffffffffffffffffffffffffffffffffffff1673ffffffffffffffffffffffffffffffffffffffff16ff5b600060018686868660405160008152602001604052604051808581526020018460ff1660ff1681526020018381526020018281526020019450505050506020604051602081039080840390855afa15801561023a573d6000803e3d6000fd5b5050506020604051035190506000809054906101000a900473ffffffffffffffffffffffffffffffffffffffff1673ffffffffffffffffffffffffffffffffffffffff168173ffffffffffffffffffffffffffffffffffffffff1614806102ee5750600160009054906101000a900473ffffffffffffffffffffffffffffffffffffffff1673ffffffffffffffffffffffffffffffffffffffff168173ffffffffffffffffffffffffffffffffffffffff16145b15156102f957600080fd5b60003083604051602001808373ffffffffffffffffffffffffffffffffffffffff1673ffffffffffffffffffffffffffffffffffffffff166c0100000000000000000000000002815260140182815260200192505050604051602081830303815290604052805190602001209050868114151561037557600080fd5b600073ffffffffffffffffffffffffffffffffffffffff166005600083815260200190815260200160002060009054906101000a900473ffffffffffffffffffffffffffffffffffffffff1673ffffffffffffffffffffffffffffffffffffffff16141561043457816005600083815260200190815260200160002060006101000a81548173ffffffffffffffffffffffffffffffffffffffff021916908373ffffffffffffffffffffffffffffffffffffffff1602179055506104e1565b600160009054906101000a900473ffffffffffffffffffffffffffffffffffffffff1673ffffffffffffffffffffffffffffffffffffffff166108fc670de0b6b3a764000085029081150290604051600060405180830381858888f193505050501580156104a6573d6000803e3d6000fd5b506000809054906101000a900473ffffffffffffffffffffffffffffffffffffffff1673ffffffffffffffffffffffffffffffffffffffff16ff5b50505050505050565b60045434101515156104fb57600080fd5b600660009054906101000a900460ff1615151561051757600080fd5b6001600660006101000a81548160ff02191690831515021790555081600160006101000a81548173ffffffffffffffffffffffffffffffffffffffff021916908373ffffffffffffffffffffffffffffffffffffffff160217905550336000806101000a81548173ffffffffffffffffffffffffffffffffffffffff021916908373ffffffffffffffffffffffffffffffffffffffff1602179055504260028190555080600381905550505056fea165627a7a72305820809519c93d9da9053afd3fd906c11df9ee2d86392ec3686e722518c75f259ccf0029",
  "source": "pragma solidity ^0.5.0;\n\ncontract ChannelContract {\n\n    // private, not publicly accessible\n    address payable private channelSender;   // make private\n    address payable private channelReceiver; // make private\n    uint private startDate;\n    uint private timeout;\n    uint private servicePrice = 1 ether;\n    mapping (bytes32 => address) private signatures;\n    bool private calledOnceGuard = false;\n\n    /* \n        The fallback function is necessary in case a user wants to interact with the contract\n        from a wallet. In this case the function takes no arguments, but accepts funds, i.e. the user\n        who knows the address of its channel with the vendor wants to top-up directly from his wallet.\n        In this case, we assume the channel receiver has been set previously from the web interface.\n        This is useful for online services, such as a mobile carrier top-up.    \n    */\n    function () external payable { }\n\n    function createChannel(address payable _to, uint _timeout) public payable {\n        require(msg.value >= servicePrice);\n\n        require(!calledOnceGuard);\n\n        // Ensure the channel is usable only once\n        calledOnceGuard = true;\n\n        channelReceiver = _to;\n        channelSender = msg.sender;\n        startDate = now;\n        timeout = _timeout;\n    }\n\n    function closeChannel(bytes32 msgHash, uint8 v, bytes32 r, bytes32 s, uint256 value) public {\n\n        address signer = ecrecover(msgHash, v, r, s);\n        require(signer == channelSender || signer == channelReceiver);\n\n        // signature valid\n\n        // hash of contract address and amount claimed by receiver\n        bytes32 proof = keccak256(abi.encodePacked(this, value)); // TODO: change to sha3 if it does not work\n    \n        // both sender and receiver must have sign the redeemable value (by sender)\n        require(proof == msgHash);\n\n        if(signatures[proof] == address(0)) {\n            signatures[proof] = signer;\n        } else {\n            // transfer function automatically reverts transaction on failure\n            channelReceiver.transfer(value * 1 ether); /// value * oneWei);\n            selfdestruct(channelSender);\n        }\n    }\n\n    event ChannelDestructed(string message);\n\n    function channelTimeout() public {\n        require(startDate + timeout <= now);\n        // self-destruct if expired\n\n        emit ChannelDestructed(\"Channel expired. Destroying...\");\n\n        selfdestruct(channelSender);\n    }\n}\n",
  "sourcePath": "/home/andrei-octavian/micropayment-channel/contracts/ChannelContract.sol",
  "compiler": {
    "name": "solc",
    "version": "0.5.0+commit.1d4f565a.Emscripten.clang"
  },
  "schemaVersion": "3.0.1",
  "updatedAt": "2019-02-13T12:48:59.001Z",
  "devdoc": {
    "methods": {}
  },
  "userdoc": {
    "methods": {}
  }
}