{
  "contractName": "MultiChannelContract",
  "abi": [
    {
      "payable": true,
      "stateMutability": "payable",
      "type": "fallback"
    },
    {
      "anonymous": false,
      "inputs": [
        {
          "indexed": false,
          "name": "id",
          "type": "uint256"
        }
      ],
      "name": "OpenedChannel",
      "type": "event",
      "signature": "0x8c490a35739dc976ee9f26ad9f0cedbb9de4991af117c5fc4ca209ebd47a046e"
    },
    {
      "anonymous": false,
      "inputs": [
        {
          "indexed": false,
          "name": "first",
          "type": "string"
        }
      ],
      "name": "FirstClose",
      "type": "event",
      "signature": "0x465073f649a30a4d27555540dcdc77e1c31479d039a790f167b1c2340dd9e046"
    },
    {
      "anonymous": false,
      "inputs": [
        {
          "indexed": false,
          "name": "second",
          "type": "string"
        }
      ],
      "name": "SecondClose",
      "type": "event",
      "signature": "0xb7be8f1f46fee7322a4ddfd41c73b9af80bc26ab3ecfce48439e528dcffc3e0d"
    },
    {
      "anonymous": false,
      "inputs": [
        {
          "indexed": false,
          "name": "aftersend",
          "type": "string"
        }
      ],
      "name": "AfterSend",
      "type": "event",
      "signature": "0x0ea93c30ebb787fbb07251b86365da6b272c369e6b3787b99ba1462fc73c97c7"
    },
    {
      "anonymous": false,
      "inputs": [
        {
          "indexed": false,
          "name": "aftersend",
          "type": "string"
        }
      ],
      "name": "HereOne",
      "type": "event",
      "signature": "0x8e681e36683dc5d4c7696fb11fca9a328c553408a0b9f7f9e54165f143364ad5"
    },
    {
      "anonymous": false,
      "inputs": [
        {
          "indexed": false,
          "name": "aftersend",
          "type": "string"
        }
      ],
      "name": "HereTwo",
      "type": "event",
      "signature": "0x2c8377b717587462a7d4b995275c3928d46f9180df9a83318008fca7d1372693"
    },
    {
      "anonymous": false,
      "inputs": [
        {
          "indexed": false,
          "name": "aftersend",
          "type": "string"
        }
      ],
      "name": "HereThree",
      "type": "event",
      "signature": "0x86b39ec7aa8ce718a21a0a9b5858ea3ed7afed657b674ad23c5d4dd02741b627"
    },
    {
      "anonymous": false,
      "inputs": [
        {
          "indexed": false,
          "name": "checkBalance",
          "type": "string"
        },
        {
          "indexed": false,
          "name": "balance",
          "type": "uint256"
        }
      ],
      "name": "CheckBalance",
      "type": "event",
      "signature": "0x19630f629b52cf6af917e683c3d7e2bd64aec7a2e904fecea2095409156523ba"
    },
    {
      "anonymous": false,
      "inputs": [
        {
          "indexed": false,
          "name": "result",
          "type": "bool"
        }
      ],
      "name": "Status",
      "type": "event",
      "signature": "0xeea9a7378612b22747fbdec0c5bdf9561d7b49252b1018ec692e11256813896e"
    },
    {
      "anonymous": false,
      "inputs": [
        {
          "indexed": false,
          "name": "printedAddress",
          "type": "address"
        }
      ],
      "name": "PrintAddress",
      "type": "event",
      "signature": "0xa16adbb4218174483d6638aa2a7cfae613fb09f920505beb947e63144629a875"
    },
    {
      "anonymous": false,
      "inputs": [
        {
          "indexed": false,
          "name": "id",
          "type": "uint256"
        }
      ],
      "name": "ClosedChannel",
      "type": "event",
      "signature": "0xf4b8da66724e8de3e5832fd75f07491ee31df98d5f63ccff432bcfd426148deb"
    },
    {
      "constant": false,
      "inputs": [
        {
          "name": "_to",
          "type": "address"
        },
        {
          "name": "_timeout",
          "type": "uint256"
        }
      ],
      "name": "createChannel",
      "outputs": [],
      "payable": true,
      "stateMutability": "payable",
      "type": "function",
      "signature": "0xbb510a77"
    },
    {
      "constant": false,
      "inputs": [
        {
          "name": "channelId",
          "type": "uint256"
        },
        {
          "name": "msgHash",
          "type": "bytes32"
        },
        {
          "name": "v",
          "type": "uint8"
        },
        {
          "name": "r",
          "type": "bytes32"
        },
        {
          "name": "s",
          "type": "bytes32"
        },
        {
          "name": "value",
          "type": "uint256"
        }
      ],
      "name": "closeChannel",
      "outputs": [],
      "payable": true,
      "stateMutability": "payable",
      "type": "function",
      "signature": "0xd0a03a83"
    },
    {
      "constant": false,
      "inputs": [
        {
          "name": "channelId",
          "type": "uint256"
        }
      ],
      "name": "channelTimeout",
      "outputs": [],
      "payable": false,
      "stateMutability": "nonpayable",
      "type": "function",
      "signature": "0x67dc6426"
    }
  ],
  "bytecode": "0x60806040526000805534801561001457600080fd5b50610cc6806100246000396000f3fe608060405260043610610057576000357c0100000000000000000000000000000000000000000000000000000000900463ffffffff16806367dc642614610059578063bb510a7714610094578063d0a03a83146100e2575b005b34801561006557600080fd5b506100926004803603602081101561007c57600080fd5b8101908080359060200190929190505050610145565b005b6100e0600480360360408110156100aa57600080fd5b81019080803573ffffffffffffffffffffffffffffffffffffffff16906020019092919080359060200190929190505050610368565b005b610143600480360360c08110156100f857600080fd5b810190808035906020019092919080359060200190929190803560ff16906020019092919080359060200190929190803590602001909291908035906020019092919050505061052a565b005b6002600082815260200190815260200160002060009054906101000a900460ff16151561017157600080fd5b610179610c45565b60016000838152602001908152602001600020608060405190810160405290816000820160009054906101000a900473ffffffffffffffffffffffffffffffffffffffff1673ffffffffffffffffffffffffffffffffffffffff1673ffffffffffffffffffffffffffffffffffffffff1681526020016001820160009054906101000a900473ffffffffffffffffffffffffffffffffffffffff1673ffffffffffffffffffffffffffffffffffffffff1673ffffffffffffffffffffffffffffffffffffffff1681526020016002820154815260200160038201548152505090504281606001518260400151011115151561027357600080fd5b60006002600084815260200190815260200160002060006101000a81548160ff02191690831515021790555060016003600084815260200190815260200160002060006101000a81548160ff0219169083151502179055507ff4b8da66724e8de3e5832fd75f07491ee31df98d5f63ccff432bcfd426148deb826040518082815260200191505060405180910390a1806000015173ffffffffffffffffffffffffffffffffffffffff166108fc3073ffffffffffffffffffffffffffffffffffffffff16319081150290604051600060405180830381858888f19350505050158015610363573d6000803e3d6000fd5b505050565b610370610c45565b82816020019073ffffffffffffffffffffffffffffffffffffffff16908173ffffffffffffffffffffffffffffffffffffffff168152505033816000019073ffffffffffffffffffffffffffffffffffffffff16908173ffffffffffffffffffffffffffffffffffffffff168152505042816040018181525050818160600181815250506001600260008054815260200190815260200160002060006101000a81548160ff0219169083151502179055507f8c490a35739dc976ee9f26ad9f0cedbb9de4991af117c5fc4ca209ebd47a046e6000546040518082815260200191505060405180910390a180600160008054815260200190815260200160002060008201518160000160006101000a81548173ffffffffffffffffffffffffffffffffffffffff021916908373ffffffffffffffffffffffffffffffffffffffff16021790555060208201518160010160006101000a81548173ffffffffffffffffffffffffffffffffffffffff021916908373ffffffffffffffffffffffffffffffffffffffff16021790555060408201518160020155606082015181600301559050506000808154809291906001019190505550505050565b60006001600088815260200190815260200160002060000160009054906101000a900473ffffffffffffffffffffffffffffffffffffffff16905060006001600089815260200190815260200160002060010160009054906101000a900473ffffffffffffffffffffffffffffffffffffffff1690506000600160008a81526020019081526020016000206004019050600260008a815260200190815260200160002060009054906101000a900460ff1615156105e657600080fd5b600060018989898960405160008152602001604052604051808581526020018460ff1660ff1681526020018381526020018281526020019450505050506020604051602081039080840390855afa158015610645573d6000803e3d6000fd5b5050506020604051035190508373ffffffffffffffffffffffffffffffffffffffff168173ffffffffffffffffffffffffffffffffffffffff1614806106b657508273ffffffffffffffffffffffffffffffffffffffff168173ffffffffffffffffffffffffffffffffffffffff16145b15156106c157600080fd5b60003086604051602001808373ffffffffffffffffffffffffffffffffffffffff1673ffffffffffffffffffffffffffffffffffffffff166c0100000000000000000000000002815260140182815260200192505050604051602081830303815290604052805190602001209050898114151561073d57600080fd5b600073ffffffffffffffffffffffffffffffffffffffff1683600083815260200190815260200160002060009054906101000a900473ffffffffffffffffffffffffffffffffffffffff1673ffffffffffffffffffffffffffffffffffffffff161415610862578183600083815260200190815260200160002060006101000a81548173ffffffffffffffffffffffffffffffffffffffff021916908373ffffffffffffffffffffffffffffffffffffffff1602179055507f465073f649a30a4d27555540dcdc77e1c31479d039a790f167b1c2340dd9e0466040518080602001828103825260108152602001807f7465737420666972737420636c6f73650000000000000000000000000000000081525060200191505060405180910390a1610c38565b7f19630f629b52cf6af917e683c3d7e2bd64aec7a2e904fecea2095409156523ba3073ffffffffffffffffffffffffffffffffffffffff16316040518080602001838152602001828103825260198152602001807f436865636b2062616c616e6365206265666f72652073656e64000000000000008152506020019250505060405180910390a17f19630f629b52cf6af917e683c3d7e2bd64aec7a2e904fecea2095409156523ba670de0b6b3a764000087026040518080602001838152602001828103825260188152602001807f436865636b20616d6f756e74206265666f72652073656e6400000000000000008152506020019250505060405180910390a17fa16adbb4218174483d6638aa2a7cfae613fb09f920505beb947e63144629a87584604051808273ffffffffffffffffffffffffffffffffffffffff1673ffffffffffffffffffffffffffffffffffffffff16815260200191505060405180910390a17fa16adbb4218174483d6638aa2a7cfae613fb09f920505beb947e63144629a87585604051808273ffffffffffffffffffffffffffffffffffffffff1673ffffffffffffffffffffffffffffffffffffffff16815260200191505060405180910390a18373ffffffffffffffffffffffffffffffffffffffff166108fc670de0b6b3a764000088029081150290604051600060405180830381858888f19350505050158015610a79573d6000803e3d6000fd5b507fb7be8f1f46fee7322a4ddfd41c73b9af80bc26ab3ecfce48439e528dcffc3e0d6040518080602001828103825260118152602001807f74657374207365636f6e6420636c6f736500000000000000000000000000000081525060200191505060405180910390a17f0ea93c30ebb787fbb07251b86365da6b272c369e6b3787b99ba1462fc73c97c76040518080602001828103825260198152602001807f61667465722073656e642c2073656c662064657374727563740000000000000081525060200191505060405180910390a16000600260008d815260200190815260200160002060006101000a81548160ff0219169083151502179055506001600360008d815260200190815260200160002060006101000a81548160ff0219169083151502179055507ff4b8da66724e8de3e5832fd75f07491ee31df98d5f63ccff432bcfd426148deb8b6040518082815260200191505060405180910390a18473ffffffffffffffffffffffffffffffffffffffff166108fc3073ffffffffffffffffffffffffffffffffffffffff16319081150290604051600060405180830381858888f19350505050158015610c36573d6000803e3d6000fd5b505b5050505050505050505050565b608060405190810160405280600073ffffffffffffffffffffffffffffffffffffffff168152602001600073ffffffffffffffffffffffffffffffffffffffff1681526020016000815260200160008152509056fea165627a7a72305820b889f0d0f5be292adbc9577445dc182a70f1350db5622a605da2a61a422698060029",
  "source": "pragma solidity ^0.5.0;\n\ncontract MultiChannelContract {\n\n\n    struct Channel {\n        address payable channelSender;\n        address payable channelReceiver;\n        uint startDate;\n        uint timeout;\n        mapping (bytes32 => address) signatures;\n    }\n    \n    uint lastChannelId = 0;\n    mapping (uint => Channel) channelMap;\n    mapping (uint => bool) openChannels;\n    mapping (uint => bool) closedChannels;\n\n    /* \n        The fallback function is necessary in case a user wants to interact with the contract\n        from a wallet. In this case the function takes no arguments, but accepts funds, i.e. the user\n        who knows the address of its channel with the vendor wants to top-up directly from his wallet.\n        In this case, we assume the channel receiver has been set previously from the web interface.\n        This is useful for online services, such as a mobile carrier top-up.    \n    */\n    function () external payable { }\n\n    event OpenedChannel(uint id);\n\n    function createChannel(address payable _to, uint _timeout) public payable {\n        Channel memory ch; \n        ch.channelReceiver = _to;\n        ch.channelSender   = msg.sender;\n        ch.startDate       = now;\n        ch.timeout         = _timeout; \n\n        openChannels[lastChannelId] = true;\n        emit OpenedChannel(lastChannelId);\n        channelMap[lastChannelId] = ch;\n        lastChannelId++;\n    }\n\n    event FirstClose(string first);\n    event SecondClose(string second);\n    event AfterSend(string aftersend);\n    event HereOne(string aftersend);\n    event HereTwo(string aftersend);\n    event HereThree(string aftersend);\n    event CheckBalance(string checkBalance, uint balance);\n    event Status(bool result);\n    event PrintAddress(address printedAddress);\n\n    event ClosedChannel(uint id);\n\n    function closeChannel(uint channelId, bytes32 msgHash, uint8 v, bytes32 r, bytes32 s, uint256 value) public payable {\n        address payable channelSender           = channelMap[channelId].channelSender;\n        address payable channelReceiver         = channelMap[channelId].channelReceiver;\n        mapping (bytes32 => address) storage signatures = channelMap[channelId].signatures;\n        \n        require(openChannels[channelId]); // channelId must be open\n\n        address signer = ecrecover(msgHash, v, r, s);\n        require(signer == channelSender || signer == channelReceiver);\n\n        // signature valid\n\n        // hash of contract address and amount claimed by receiver\n        bytes32 proof = keccak256(abi.encodePacked(this, value)); // TODO: change to sha3 if it does not work\n    \n        // both sender and receiver must have sign the redeemable value (by sender)\n        require(proof == msgHash);\n\n        if(signatures[proof] == address(0)) {\n            signatures[proof] = signer;\n            emit FirstClose(\"test first close\");\n        } else {\n            emit CheckBalance(\"Check balance before send\", address(this).balance);\n            emit CheckBalance(\"Check amount before send\", value * 1 ether);\n            emit PrintAddress(channelReceiver);\n            emit PrintAddress(channelSender);\n            channelReceiver.transfer(value * 1 ether); /// value * oneWei);\n            emit SecondClose(\"test second close\");\n            emit AfterSend(\"after send, self destruct\");\n            \n\n            openChannels[channelId] = false;\n            closedChannels[channelId] = true;\n            emit ClosedChannel(channelId);\n            channelSender.transfer(address(this).balance);\n        }\n    }\n\n    function channelTimeout(uint channelId) public {\n        require(openChannels[channelId]); // channelId must be open\n\n        Channel memory ch = channelMap[channelId];\n\n        require(ch.startDate + ch.timeout <= now);\n        // self-destruct if expired\n\n        openChannels[channelId] = false;\n        closedChannels[channelId] = true;\n        emit ClosedChannel(channelId);\n        ch.channelSender.transfer(address(this).balance);\n    }\n}\n",
  "sourcePath": "/home/andrei-octavian/micropayment-channel/contracts/MultiChannelContract.sol",
  "compiler": {
    "name": "solc",
    "version": "0.5.0+commit.1d4f565a.Emscripten.clang"
  },
  "schemaVersion": "3.0.1",
  "updatedAt": "2019-02-12T17:49:15.305Z",
  "devdoc": {
    "methods": {}
  },
  "userdoc": {
    "methods": {}
  }
}