{
  "contractName": "TradeSyndication",
  "abi": [
    {
      "constant": true,
      "inputs": [
        {
          "name": "",
          "type": "address"
        },
        {
          "name": "",
          "type": "uint256"
        }
      ],
      "name": "mapOwnerAssets",
      "outputs": [
        {
          "name": "name",
          "type": "string"
        },
        {
          "name": "isSold",
          "type": "bool"
        }
      ],
      "payable": false,
      "stateMutability": "view",
      "type": "function",
      "signature": "0x3a4f5bfa"
    },
    {
      "constant": true,
      "inputs": [
        {
          "name": "",
          "type": "address"
        }
      ],
      "name": "mapOwnerAssetCount",
      "outputs": [
        {
          "name": "",
          "type": "uint256"
        }
      ],
      "payable": false,
      "stateMutability": "view",
      "type": "function",
      "signature": "0x82ecf5cb"
    },
    {
      "constant": true,
      "inputs": [],
      "name": "owner",
      "outputs": [
        {
          "name": "",
          "type": "address"
        }
      ],
      "payable": false,
      "stateMutability": "view",
      "type": "function",
      "signature": "0x8da5cb5b"
    },
    {
      "constant": true,
      "inputs": [],
      "name": "totalNumberOfAssets",
      "outputs": [
        {
          "name": "",
          "type": "uint256"
        }
      ],
      "payable": false,
      "stateMutability": "view",
      "type": "function",
      "signature": "0xafdaf742"
    },
    {
      "inputs": [],
      "payable": false,
      "stateMutability": "nonpayable",
      "type": "constructor",
      "signature": "constructor"
    },
    {
      "anonymous": false,
      "inputs": [
        {
          "indexed": true,
          "name": "_verifiedOwner",
          "type": "address"
        },
        {
          "indexed": true,
          "name": "_totalAssetCount",
          "type": "uint256"
        },
        {
          "indexed": false,
          "name": "_assetName",
          "type": "string"
        }
      ],
      "name": "AssetAllocated",
      "type": "event",
      "signature": "0x56ba29d84755b571bf7c39f1e768b9bbf41abbfd189da2e7b4140667876ba8ce"
    },
    {
      "anonymous": false,
      "inputs": [
        {
          "indexed": true,
          "name": "_from",
          "type": "address"
        },
        {
          "indexed": true,
          "name": "_to",
          "type": "address"
        },
        {
          "indexed": false,
          "name": "_assetName",
          "type": "string"
        }
      ],
      "name": "AssetTransferred",
      "type": "event",
      "signature": "0x653bc42abb4e9566e224482c8ed6335fd3dddb14b7b25a3adc5461870b4bc463"
    },
    {
      "constant": true,
      "inputs": [],
      "name": "getString",
      "outputs": [
        {
          "name": "",
          "type": "string"
        }
      ],
      "payable": false,
      "stateMutability": "pure",
      "type": "function",
      "signature": "0x89ea642f"
    },
    {
      "constant": false,
      "inputs": [
        {
          "name": "_verifiedOwner",
          "type": "address"
        },
        {
          "name": "_assetName",
          "type": "string"
        }
      ],
      "name": "allocateAsset",
      "outputs": [],
      "payable": false,
      "stateMutability": "nonpayable",
      "type": "function",
      "signature": "0x2eae0f85"
    }
  ],
  "bytecode": "0x608060405234801561001057600080fd5b50336000806101000a81548173ffffffffffffffffffffffffffffffffffffffff021916908373ffffffffffffffffffffffffffffffffffffffff160217905550610882806100606000396000f3fe608060405260043610610078576000357c0100000000000000000000000000000000000000000000000000000000900463ffffffff1680632eae0f851461007d5780633a4f5bfa1461016557806382ecf5cb1461024457806389ea642f146102a95780638da5cb5b14610339578063afdaf74214610390575b600080fd5b34801561008957600080fd5b50610163600480360360408110156100a057600080fd5b81019080803573ffffffffffffffffffffffffffffffffffffffff169060200190929190803590602001906401000000008111156100dd57600080fd5b8201836020820111156100ef57600080fd5b8035906020019184600183028401116401000000008311171561011157600080fd5b91908080601f016020809104026020016040519081016040528093929190818152602001838380828437600081840152601f19601f8201169050808301925050505050505091929192905050506103bb565b005b34801561017157600080fd5b506101be6004803603604081101561018857600080fd5b81019080803573ffffffffffffffffffffffffffffffffffffffff1690602001909291908035906020019092919050505061065b565b604051808060200183151515158152602001828103825284818151815260200191508051906020019080838360005b838110156102085780820151818401526020810190506101ed565b50505050905090810190601f1680156102355780820380516001836020036101000a031916815260200191505b50935050505060405180910390f35b34801561025057600080fd5b506102936004803603602081101561026757600080fd5b81019080803573ffffffffffffffffffffffffffffffffffffffff169060200190929190505050610731565b6040518082815260200191505060405180910390f35b3480156102b557600080fd5b506102be610749565b6040518080602001828103825283818151815260200191508051906020019080838360005b838110156102fe5780820151818401526020810190506102e3565b50505050905090810190601f16801561032b5780820380516001836020036101000a031916815260200191505b509250505060405180910390f35b34801561034557600080fd5b5061034e610786565b604051808273ffffffffffffffffffffffffffffffffffffffff1673ffffffffffffffffffffffffffffffffffffffff16815260200191505060405180910390f35b34801561039c57600080fd5b506103a56107ab565b6040518082815260200191505060405180910390f35b6000809054906101000a900473ffffffffffffffffffffffffffffffffffffffff1673ffffffffffffffffffffffffffffffffffffffff163373ffffffffffffffffffffffffffffffffffffffff1614151561041657600080fd5b6000600360008473ffffffffffffffffffffffffffffffffffffffff1673ffffffffffffffffffffffffffffffffffffffff168152602001908152602001600020549050604080519081016040528083815260200160001515815250600260008573ffffffffffffffffffffffffffffffffffffffff1673ffffffffffffffffffffffffffffffffffffffff168152602001908152602001600020600083815260200190815260200160002060008201518160000190805190602001906104de9291906107b1565b5060208201518160010160006101000a81548160ff021916908315150217905550905050600360008473ffffffffffffffffffffffffffffffffffffffff1673ffffffffffffffffffffffffffffffffffffffff16815260200190815260200160002060008154809291906001019190505550600160008154809291906001019190505550600360008473ffffffffffffffffffffffffffffffffffffffff1673ffffffffffffffffffffffffffffffffffffffff168152602001908152602001600020548373ffffffffffffffffffffffffffffffffffffffff167f56ba29d84755b571bf7c39f1e768b9bbf41abbfd189da2e7b4140667876ba8ce846040518080602001828103825283818151815260200191508051906020019080838360005b8381101561061c578082015181840152602081019050610601565b50505050905090810190601f1680156106495780820380516001836020036101000a031916815260200191505b509250505060405180910390a3505050565b600260205281600052604060002060205280600052604060002060009150915050806000018054600181600116156101000203166002900480601f0160208091040260200160405190810160405280929190818152602001828054600181600116156101000203166002900480156107145780601f106106e957610100808354040283529160200191610714565b820191906000526020600020905b8154815290600101906020018083116106f757829003601f168201915b5050505050908060010160009054906101000a900460ff16905082565b60036020528060005260406000206000915090505481565b60606040805190810160405280600881526020017f4120737472696e67000000000000000000000000000000000000000000000000815250905090565b6000809054906101000a900473ffffffffffffffffffffffffffffffffffffffff1681565b60015481565b828054600181600116156101000203166002900490600052602060002090601f016020900481019282601f106107f257805160ff1916838001178555610820565b82800160010185558215610820579182015b8281111561081f578251825591602001919060010190610804565b5b50905061082d9190610831565b5090565b61085391905b8082111561084f576000816000905550600101610837565b5090565b9056fea165627a7a72305820ab2f1b326434f0b7029abf2c3e399f494ff844f6d34d13e9576f38cdc7ac33530029",
  "source": "pragma solidity ^0.5.0;\n\ncontract TradeSyndication {\n\n    address public owner;\n    uint public totalNumberOfAssets;\n\n    constructor() public {\n        owner = msg.sender;\n    }\n\n    modifier onlyOwner() {\n        require(msg.sender == owner);\n        _;\n    }\n\n    struct Asset {\n        string name;\n        bool isSold;\n    }\n\n\n\n    mapping (address => mapping (uint256 => Asset)) public mapOwnerAssets;\n    mapping (address => uint256) public mapOwnerAssetCount;\n\n    event AssetAllocated(address indexed _verifiedOwner, uint256 indexed _totalAssetCount, string _assetName);\n    event AssetTransferred(address indexed _from, address indexed _to, string _assetName);\n\n    function getString() public pure returns (string memory) {\n        return \"A string\";\n    }\n\n    function allocateAsset(address _verifiedOwner, string memory _assetName) public onlyOwner {\n        uint assetIndex = mapOwnerAssetCount[_verifiedOwner];\n        mapOwnerAssets[_verifiedOwner][assetIndex] = Asset({name : _assetName, isSold : false});\n        mapOwnerAssetCount[_verifiedOwner]++;\n        totalNumberOfAssets++;\n\n        // Event\n        emit AssetAllocated(_verifiedOwner, mapOwnerAssetCount[_verifiedOwner], _assetName);\n    }\n\n}\n",
  "sourcePath": "/home/andrei-octavian/micropayment-channel/contracts/TradeSyndication.sol",
  "compiler": {
    "name": "solc",
    "version": "0.5.0+commit.1d4f565a.Emscripten.clang"
  },
  "schemaVersion": "3.0.1",
  "updatedAt": "2019-02-02T21:30:07.576Z",
  "devdoc": {
    "methods": {}
  },
  "userdoc": {
    "methods": {}
  }
}