{
  "contractName": "TradeSyndication",
  "abi": [
    {
      "constant": true,
      "inputs": [],
      "name": "owner",
      "outputs": [
        {
          "name": "",
          "type": "address"
        }
      ],
      "payable": false,
      "stateMutability": "view",
      "type": "function",
      "signature": "0x8da5cb5b"
    },
    {
      "inputs": [
        {
          "name": "initialSupply",
          "type": "uint256"
        }
      ],
      "payable": false,
      "stateMutability": "nonpayable",
      "type": "constructor",
      "signature": "constructor"
    },
    {
      "anonymous": false,
      "inputs": [
        {
          "indexed": false,
          "name": "_addr",
          "type": "address"
        },
        {
          "indexed": false,
          "name": "_msg",
          "type": "string"
        }
      ],
      "name": "Debug",
      "type": "event",
      "signature": "0x043dde8a406bae2ac5a8f7a1abfb5836a348f2563d30428c735f5c2cc64ee7d6"
    },
    {
      "anonymous": false,
      "inputs": [
        {
          "indexed": false,
          "name": "_addr",
          "type": "address"
        },
        {
          "indexed": false,
          "name": "_msg",
          "type": "string"
        },
        {
          "indexed": false,
          "name": "_val",
          "type": "uint256"
        }
      ],
      "name": "DebugValue",
      "type": "event",
      "signature": "0x68546327c01396cebf0f1c0ce6ada69313a10becce6d60f33dbe09001f6f3732"
    },
    {
      "anonymous": false,
      "inputs": [
        {
          "indexed": false,
          "name": "_nmber",
          "type": "uint256"
        }
      ],
      "name": "TestEvent",
      "type": "event",
      "signature": "0x1440c4dd67b4344ea1905ec0318995133b550f168b4ee959a0da6b503d7d2414"
    },
    {
      "anonymous": false,
      "inputs": [
        {
          "indexed": false,
          "name": "wrestler1",
          "type": "address"
        },
        {
          "indexed": false,
          "name": "wrestler2",
          "type": "address"
        }
      ],
      "name": "WrestlingStartsEvent",
      "type": "event",
      "signature": "0xd4443f0433b17d5fcbda14745060c62f4fd645677efd560e394d49cc6b73b9e5"
    },
    {
      "constant": false,
      "inputs": [
        {
          "name": "_to",
          "type": "address"
        },
        {
          "name": "_value",
          "type": "uint256"
        }
      ],
      "name": "transfer",
      "outputs": [
        {
          "name": "success",
          "type": "bool"
        }
      ],
      "payable": false,
      "stateMutability": "nonpayable",
      "type": "function",
      "signature": "0xa9059cbb"
    },
    {
      "constant": false,
      "inputs": [],
      "name": "mata",
      "outputs": [],
      "payable": false,
      "stateMutability": "nonpayable",
      "type": "function",
      "signature": "0x79ea227f"
    },
    {
      "constant": false,
      "inputs": [],
      "name": "getBalance",
      "outputs": [
        {
          "name": "",
          "type": "uint256"
        }
      ],
      "payable": false,
      "stateMutability": "nonpayable",
      "type": "function",
      "signature": "0x12065fe0"
    },
    {
      "constant": false,
      "inputs": [],
      "name": "registerAsAnOpponent",
      "outputs": [],
      "payable": false,
      "stateMutability": "nonpayable",
      "type": "function",
      "signature": "0xa8b42f1f"
    },
    {
      "constant": true,
      "inputs": [
        {
          "name": "msgHash",
          "type": "bytes32"
        },
        {
          "name": "sig",
          "type": "bytes"
        }
      ],
      "name": "recoverSigner",
      "outputs": [
        {
          "name": "",
          "type": "address"
        }
      ],
      "payable": false,
      "stateMutability": "pure",
      "type": "function",
      "signature": "0x97aba7f9"
    },
    {
      "constant": true,
      "inputs": [
        {
          "name": "_addr",
          "type": "address"
        },
        {
          "name": "msgHash",
          "type": "bytes32"
        },
        {
          "name": "sig",
          "type": "bytes"
        }
      ],
      "name": "isSigned",
      "outputs": [
        {
          "name": "",
          "type": "bool"
        }
      ],
      "payable": false,
      "stateMutability": "pure",
      "type": "function",
      "signature": "0x3309e791"
    }
  ],
  "bytecode": "0x608060405234801561001057600080fd5b50604051602080610acf8339810180604052602081101561003057600080fd5b8101908080519060200190929190505050336000806101000a81548173ffffffffffffffffffffffffffffffffffffffff021916908373ffffffffffffffffffffffffffffffffffffffff16021790555080600160003373ffffffffffffffffffffffffffffffffffffffff1673ffffffffffffffffffffffffffffffffffffffff16815260200190815260200160002081905550506109fa806100d56000396000f3fe608060405260043610610083576000357c0100000000000000000000000000000000000000000000000000000000900463ffffffff16806312065fe0146100885780633309e791146100b357806379ea227f146101bd5780638da5cb5b146101d457806397aba7f91461022b578063a8b42f1f1461033d578063a9059cbb14610354575b600080fd5b34801561009457600080fd5b5061009d6103c7565b6040518082815260200191505060405180910390f35b3480156100bf57600080fd5b506101a3600480360360608110156100d657600080fd5b81019080803573ffffffffffffffffffffffffffffffffffffffff169060200190929190803590602001909291908035906020019064010000000081111561011d57600080fd5b82018360208201111561012f57600080fd5b8035906020019184600183028401116401000000008311171561015157600080fd5b91908080601f016020809104026020016040519081016040528093929190818152602001838380828437600081840152601f19601f820116905080830192505050505050509192919290505050610529565b604051808215151515815260200191505060405180910390f35b3480156101c957600080fd5b506101d26105e5565b005b3480156101e057600080fd5b506101e96106bb565b604051808273ffffffffffffffffffffffffffffffffffffffff1673ffffffffffffffffffffffffffffffffffffffff16815260200191505060405180910390f35b34801561023757600080fd5b506102fb6004803603604081101561024e57600080fd5b81019080803590602001909291908035906020019064010000000081111561027557600080fd5b82018360208201111561028757600080fd5b803590602001918460018302840111640100000000831117156102a957600080fd5b91908080601f016020809104026020016040519081016040528093929190818152602001838380828437600081840152601f19601f8201169050808301925050505050505091929192905050506106e0565b604051808273ffffffffffffffffffffffffffffffffffffffff1673ffffffffffffffffffffffffffffffffffffffff16815260200191505060405180910390f35b34801561034957600080fd5b5061035261076d565b005b34801561036057600080fd5b506103ad6004803603604081101561037757600080fd5b81019080803573ffffffffffffffffffffffffffffffffffffffff16906020019092919080359060200190929190505050610806565b604051808215151515815260200191505060405180910390f35b60007f1440c4dd67b4344ea1905ec0318995133b550f168b4ee959a0da6b503d7d2414607b6040518082815260200191505060405180910390a17f68546327c01396cebf0f1c0ce6ada69313a10becce6d60f33dbe09001f6f373233600160003373ffffffffffffffffffffffffffffffffffffffff1673ffffffffffffffffffffffffffffffffffffffff16815260200190815260200160002054604051808373ffffffffffffffffffffffffffffffffffffffff1673ffffffffffffffffffffffffffffffffffffffff16815260200180602001838152602001828103825260188152602001807f5468652076616c7565206f6620746865206d6573736167650000000000000000815250602001935050505060405180910390a1600160003373ffffffffffffffffffffffffffffffffffffffff1673ffffffffffffffffffffffffffffffffffffffff16815260200190815260200160002054905090565b60008060008061053885610989565b8093508194508295505050508673ffffffffffffffffffffffffffffffffffffffff1660018785858560405160008152602001604052604051808581526020018460ff1660ff1681526020018381526020018281526020019450505050506020604051602081039080840390855afa1580156105b8573d6000803e3d6000fd5b5050506020604051035173ffffffffffffffffffffffffffffffffffffffff161493505050509392505050565b7f1440c4dd67b4344ea1905ec0318995133b550f168b4ee959a0da6b503d7d2414607b6040518082815260200191505060405180910390a17f043dde8a406bae2ac5a8f7a1abfb5836a348f2563d30428c735f5c2cc64ee7d633604051808273ffffffffffffffffffffffffffffffffffffffff1673ffffffffffffffffffffffffffffffffffffffff16815260200180602001828103825260188152602001807f5468652076616c7565206f6620746865206d65737361676500000000000000008152506020019250505060405180910390a1565b6000809054906101000a900473ffffffffffffffffffffffffffffffffffffffff1681565b6000806000806106ef85610989565b80935081945082955050505060018684848460405160008152602001604052604051808581526020018460ff1660ff1681526020018381526020018281526020019450505050506020604051602081039080840390855afa158015610758573d6000803e3d6000fd5b50505060206040510351935050505092915050565b7fd4443f0433b17d5fcbda14745060c62f4fd645677efd560e394d49cc6b73b9e53333604051808373ffffffffffffffffffffffffffffffffffffffff1673ffffffffffffffffffffffffffffffffffffffff1681526020018273ffffffffffffffffffffffffffffffffffffffff1673ffffffffffffffffffffffffffffffffffffffff1681526020019250505060405180910390a1565b600081600160003373ffffffffffffffffffffffffffffffffffffffff1673ffffffffffffffffffffffffffffffffffffffff168152602001908152602001600020541015151561085657600080fd5b600160008473ffffffffffffffffffffffffffffffffffffffff1673ffffffffffffffffffffffffffffffffffffffff1681526020019081526020016000205482600160008673ffffffffffffffffffffffffffffffffffffffff1673ffffffffffffffffffffffffffffffffffffffff1681526020019081526020016000205401101515156108e557600080fd5b81600160003373ffffffffffffffffffffffffffffffffffffffff1673ffffffffffffffffffffffffffffffffffffffff1681526020019081526020016000206000828254039250508190555081600160008573ffffffffffffffffffffffffffffffffffffffff1673ffffffffffffffffffffffffffffffffffffffff168152602001908152602001600020600082825401925050819055506001905092915050565b60008060006041845114151561099e57600080fd5b60008060006020870151925060408701519150606087015160001a9050808383955095509550505050919390925056fea165627a7a723058208bbc7a40ba3dd1f0ca858fbd0b02b8c014e6a14b7c7006e51d91656f3c895c970029",
  "source": "pragma solidity ^0.5.0;\n\ncontract TradeSyndication {\n\n    address public owner;\n    mapping (address => uint256) balanceOf;\n\n    constructor(uint256 initialSupply) public {\n        owner = msg.sender;\n        balanceOf[msg.sender] = initialSupply;\n    }\n\n    /* Send coins */\n    function transfer(address _to, uint256 _value) public returns (bool success) {\n        require(balanceOf[msg.sender] >= _value);           // Check if the sender has enough\n        require(balanceOf[_to] + _value >= balanceOf[_to]); // Check for overflows\n        balanceOf[msg.sender] -= _value;                    // Subtract from the sender\n        balanceOf[_to] += _value;                           // Add the same to the recipient\n        return true;\n    }\n\n    event Debug(address _addr, string _msg);\n    event DebugValue(address _addr, string _msg, uint256 _val);\n    event TestEvent(uint _nmber);\n\n    function mata() public {\n        emit TestEvent(123);\n        emit Debug(msg.sender, \"The value of the message\");\n    }\n\n    function getBalance() public returns (uint256) {\n        emit TestEvent(123);\n        emit DebugValue(msg.sender, \"The value of the message\", balanceOf[msg.sender]);\n        return balanceOf[msg.sender];\n    }\n\n\n    event WrestlingStartsEvent(address wrestler1, address wrestler2);\n\n\tfunction registerAsAnOpponent() public {\n\n        emit WrestlingStartsEvent(msg.sender, msg.sender);\n    }\n\n\n\n    // Message signature verification\n    function splitSignature(bytes memory sig) internal pure returns (uint8, bytes32, bytes32) {\n        require(sig.length == 65);\n\n        bytes32 r;\n        bytes32 s;\n        uint8 v;\n\n        assembly {\n            // first 32 bytes, after the length prefix\n            r := mload(add(sig, 32))\n            // second 32 bytes\n            s := mload(add(sig, 64))\n            // final byte (first byte of the next 32 bytes)\n            v := byte(0, mload(add(sig, 96)))\n        }\n\n        return (v, r, s);\n    }\n    \n    // usage https://programtheblockchain.com/posts/2018/02/17/signing-and-verifying-messages-in-ethereum/\n    function recoverSigner(bytes32 msgHash, bytes memory sig) public pure returns (address) {\n        uint8 v;\n        bytes32 r;\n        bytes32 s;\n\n        (v, r, s) = splitSignature(sig);\n\n        return ecrecover(msgHash, v, r, s);\n    }\n    \n    function isSigned(address _addr, bytes32 msgHash, bytes memory sig) public pure returns (bool) {\n        uint8 v;\n        bytes32 r;\n        bytes32 s;\n\n        (v, r, s) = splitSignature(sig);\n\n        return ecrecover(msgHash, v, r, s) == _addr;\n}\n}\n",
  "sourcePath": "/home/andrei-octavian/micropayment-channel/contracts/TradeSyndication.sol",
  "compiler": {
    "name": "solc",
    "version": "0.5.0+commit.1d4f565a.Emscripten.clang"
  },
  "schemaVersion": "3.0.1",
  "updatedAt": "2019-02-06T14:23:11.065Z",
  "devdoc": {
    "methods": {}
  },
  "userdoc": {
    "methods": {}
  }
}